{
    "_format": "hh-sol-artifact-1",
    "contractName": "Treasury",
    "sourceName": "contracts/Treasury.sol",
    "abi": [
        {
            "inputs": [
                {
                    "internalType": "address",
                    "name": "_payee",
                    "type": "address"
                }
            ],
            "stateMutability": "payable",
            "type": "constructor"
        },
        {
            "anonymous": false,
            "inputs": [
                {
                    "indexed": true,
                    "internalType": "address",
                    "name": "previousOwner",
                    "type": "address"
                },
                {
                    "indexed": true,
                    "internalType": "address",
                    "name": "newOwner",
                    "type": "address"
                }
            ],
            "name": "OwnershipTransferred",
            "type": "event"
        },
        {
            "inputs": [],
            "name": "isReleased",
            "outputs": [
                {
                    "internalType": "bool",
                    "name": "",
                    "type": "bool"
                }
            ],
            "stateMutability": "view",
            "type": "function"
        },
        {
            "inputs": [],
            "name": "owner",
            "outputs": [
                {
                    "internalType": "address",
                    "name": "",
                    "type": "address"
                }
            ],
            "stateMutability": "view",
            "type": "function"
        },
        {
            "inputs": [],
            "name": "payee",
            "outputs": [
                {
                    "internalType": "address",
                    "name": "",
                    "type": "address"
                }
            ],
            "stateMutability": "view",
            "type": "function"
        },
        {
            "inputs": [],
            "name": "releaseFunds",
            "outputs": [],
            "stateMutability": "nonpayable",
            "type": "function"
        },
        {
            "inputs": [],
            "name": "renounceOwnership",
            "outputs": [],
            "stateMutability": "nonpayable",
            "type": "function"
        },
        {
            "inputs": [],
            "name": "totalFunds",
            "outputs": [
                {
                    "internalType": "uint256",
                    "name": "",
                    "type": "uint256"
                }
            ],
            "stateMutability": "view",
            "type": "function"
        },
        {
            "inputs": [
                {
                    "internalType": "address",
                    "name": "newOwner",
                    "type": "address"
                }
            ],
            "name": "transferOwnership",
            "outputs": [],
            "stateMutability": "nonpayable",
            "type": "function"
        }
    ],
    "bytecode": "0x608060405260405161094e38038061094e8339818101604052810190610025919061018b565b6100416100366100aa60201b60201c565b6100b260201b60201c565b3460018190555080600260006101000a81548173ffffffffffffffffffffffffffffffffffffffff021916908373ffffffffffffffffffffffffffffffffffffffff1602179055506000600260146101000a81548160ff021916908315150217905550506101fd565b600033905090565b60008060009054906101000a900473ffffffffffffffffffffffffffffffffffffffff169050816000806101000a81548173ffffffffffffffffffffffffffffffffffffffff021916908373ffffffffffffffffffffffffffffffffffffffff1602179055508173ffffffffffffffffffffffffffffffffffffffff168173ffffffffffffffffffffffffffffffffffffffff167f8be0079c531659141344cd1fd0a4f28419497f9722a3daafe3b4186f6b6457e060405160405180910390a35050565b600081519050610185816101e6565b92915050565b60006020828403121561019d57600080fd5b60006101ab84828501610176565b91505092915050565b60006101bf826101c6565b9050919050565b600073ffffffffffffffffffffffffffffffffffffffff82169050919050565b6101ef816101b4565b81146101fa57600080fd5b50565b6107428061020c6000396000f3fe608060405234801561001057600080fd5b506004361061007d5760003560e01c8063968ed6001161005b578063968ed600146100b4578063ae90b213146100d2578063f2fde38b146100f0578063fa2a89971461010c5761007d565b806369d8957514610082578063715018a61461008c5780638da5cb5b14610096575b600080fd5b61008a61012a565b005b61009461022e565b005b61009e6102b6565b6040516100ab9190610593565b60405180910390f35b6100bc6102df565b6040516100c99190610609565b60405180910390f35b6100da6102e5565b6040516100e79190610593565b60405180910390f35b61010a600480360381019061010591906104f7565b61030b565b005b610114610403565b60405161012191906105ae565b60405180910390f35b610132610416565b73ffffffffffffffffffffffffffffffffffffffff166101506102b6565b73ffffffffffffffffffffffffffffffffffffffff16146101a6576040517f08c379a000000000000000000000000000000000000000000000000000000000815260040161019d906105e9565b60405180910390fd5b6001600260146101000a81548160ff021916908315150217905550600260009054906101000a900473ffffffffffffffffffffffffffffffffffffffff1673ffffffffffffffffffffffffffffffffffffffff166108fc6001549081150290604051600060405180830381858888f1935050505015801561022b573d6000803e3d6000fd5b50565b610236610416565b73ffffffffffffffffffffffffffffffffffffffff166102546102b6565b73ffffffffffffffffffffffffffffffffffffffff16146102aa576040517f08c379a00000000000000000000000000000000000000000000000000000000081526004016102a1906105e9565b60405180910390fd5b6102b4600061041e565b565b60008060009054906101000a900473ffffffffffffffffffffffffffffffffffffffff16905090565b60015481565b600260009054906101000a900473ffffffffffffffffffffffffffffffffffffffff1681565b610313610416565b73ffffffffffffffffffffffffffffffffffffffff166103316102b6565b73ffffffffffffffffffffffffffffffffffffffff1614610387576040517f08c379a000000000000000000000000000000000000000000000000000000000815260040161037e906105e9565b60405180910390fd5b600073ffffffffffffffffffffffffffffffffffffffff168173ffffffffffffffffffffffffffffffffffffffff1614156103f7576040517f08c379a00000000000000000000000000000000000000000000000000000000081526004016103ee906105c9565b60405180910390fd5b6104008161041e565b50565b600260149054906101000a900460ff1681565b600033905090565b60008060009054906101000a900473ffffffffffffffffffffffffffffffffffffffff169050816000806101000a81548173ffffffffffffffffffffffffffffffffffffffff021916908373ffffffffffffffffffffffffffffffffffffffff1602179055508173ffffffffffffffffffffffffffffffffffffffff168173ffffffffffffffffffffffffffffffffffffffff167f8be0079c531659141344cd1fd0a4f28419497f9722a3daafe3b4186f6b6457e060405160405180910390a35050565b6000813590506104f1816106f5565b92915050565b60006020828403121561050957600080fd5b6000610517848285016104e2565b91505092915050565b61052981610635565b82525050565b61053881610647565b82525050565b600061054b602683610624565b91506105568261067d565b604082019050919050565b600061056e602083610624565b9150610579826106cc565b602082019050919050565b61058d81610673565b82525050565b60006020820190506105a86000830184610520565b92915050565b60006020820190506105c3600083018461052f565b92915050565b600060208201905081810360008301526105e28161053e565b9050919050565b6000602082019050818103600083015261060281610561565b9050919050565b600060208201905061061e6000830184610584565b92915050565b600082825260208201905092915050565b600061064082610653565b9050919050565b60008115159050919050565b600073ffffffffffffffffffffffffffffffffffffffff82169050919050565b6000819050919050565b7f4f776e61626c653a206e6577206f776e657220697320746865207a65726f206160008201527f6464726573730000000000000000000000000000000000000000000000000000602082015250565b7f4f776e61626c653a2063616c6c6572206973206e6f7420746865206f776e6572600082015250565b6106fe81610635565b811461070957600080fd5b5056fea2646970667358221220e3d8f44f6348555d0d0b6c769dd551cab5460ff59e8dc6b99b7dd3e18f87ec3264736f6c63430008040033",
    "linkReferences": {},
    "deployedLinkReferences": {}
}